:020000040000FA
:0400000080310A2819
:100008007E1480318B31BD237E10090080310C288D
:100018002300FF30EC000130ED002000A030EF019C
:100028008400013085004C308631F926803120303B
:1000380084000230850013308631F9268031A030E3
:1000480084000230850040308631F9268031203026
:1000580084000330850048308631F9268031A0308D
:1000680084000330850040308631F92680317E10C7
:1000780020003E280030C323803100248031F03036
:100088000032890B44282300B801B901BA01542071
:10009800973181278031E72380313A2180315128F7
:1000A8002100E0016008B83E8600013087000108A1
:1000B800003E840090300318013E85000008E100EE
:1000C800E11F722822000E15000000000000000049
:1000D80000000000000022000E117D2822000E15ED
:1000E80000000000000022000E11000000000000C7
:1000F80000002100611F8C2822000E15000000005E
:100108000000000000000000000022000E119728E7
:1001180022000E1500000000000022000E11000051
:100128000000000000002100E11EA62822000E1594
:100138000000000000000000000000000000220095
:100148000E11B12822000E15000000000000220048
:100158000E1100000000000000002100611EC028F0
:1001680022000E1500000000000000000000000042
:10017800000022000E11CB2822000E1500000000FE
:10018800000022000E110000000000000000210005
:10019800E11DDA2822000E15000000000000000012
:1001A80000000000000022000E11E52822000E15B4
:1001B80000000000000022000E11000000000000F6
:1001C80000002100611DF42822000E150000000027
:1001D8000000000000000000000022000E11FF28AF
:1001E80022000E1500000000000022000E11000081
:1001F8000000000000002100E11C0E2922000E155D
:1002080000000000000000000000000000002200C4
:100218000E11192922000E1500000000000022000E
:100228000E1100000000000000002100611C2829B8
:1002380022000E1500000000000000000000000071
:10024800000022000E11332922000E1500000000C4
:10025800000022000E110000000000000000210034
:100268000330E00A600203180800562820302000F6
:100278006F02031C08003D008E1808002300D401FB
:100288006D08031956296C08031D08005708031D3B
:100298005629AB302100E0009830E100202280315F
:1002A8002300ED015208031D6C295708031D152A68
:1002B800D3015308203E860003308700EA308101CD
:1002C8002100E0009830E1002022803123009529A8
:1002D800520BD7295708031D152A3C30540203181E
:1002E800152A2100A030EB01EB0A84310524803166
:1002F800EE006E080319152A270020082300EF00D6
:100308000D3A031D97295408A03E86000230870045
:100318000D308100D40A5408A03E86000A308100BE
:10032800D40AD20A152A08306F06031DB4295308C7
:10033800031971295408A03E86000230870008304E
:100348008100D40A5408A03E860020308100D40AD7
:100358005408A03E860008308100D40AD303D0296F
:1003680020306F02031C71297F306F020318712936
:1003780047305302031871295408A03E8600023002
:1003880087006F088100D40A5308203E8600033096
:1003980087006F088100D30A5308203E8600033087
:1003A80087008101712902305206031D152A57085A
:1003B800031D152A50228031003A0319F72923001A
:1003C8005408A03E86000230870045308100D40AD8
:1003D8005408A03E860072308100D40A5408A03E1A
:1003E80086007230042A23005408A03E860002309A
:1003F80087004F308100D40A5408A03E86006B3035
:100408008100D40A5408A03E8600023087000A30D2
:100418008100D40A5408A03E86000D308100D40A19
:10042800D201540803191E2A54082100E000A03004
:1004380097312F278431512C1211230057080319A3
:10044800282A2100121508002100E7016108E600AA
:100458006008E500E70A670F322A3F2A6608E300CA
:100468006508E200E50A0319E60A840063088500C6
:100478001200031D2E2A61082300CA00210060080B
:100488002300C900210067082300D600D501D70141
:10049800D70A2100121508002200EB012300D10120
:1004A800B42380315308510203185C2A2200EB0A56
:1004B8002423803163082200EF0021006208220013
:1004C800EE00210061082200ED00210060082200F2
:1004D800EC006B080319032B23005408A03E860088
:1004E8000230870022006C08E5006D08E6006E08FF
:1004F800E7006F08E8001430E836E70CE60CE50C76
:10050800890B802A0F306505E900D330EA016907B5
:10051800840098306A3D8500000881002300D40AD1
:100528005408A03E8600023087000F3022006E0576
:10053800E500D330E601650784009830663D850004
:10054800000881002300D40A5408A03E8600220037
:100558006D08E6006C08E500660E0F39E5000F30FF
:10056800E6016505E700D330E801670784009830A5
:10057800683D8500000881002300D40A5408A03E85
:1005880086000F3022006D05E500D330E6016507CF
:1005980084009830663D8500000881002300D40A55
:1005A8005408A03E860022006D08E6006C08E500AD
:1005B8000430E636E50C890BDD2A0F306505E700C7
:1005C800D330E801670784009830683D850000084B
:1005D80081002300D40A5408A03E86000230870018
:1005E8000F3022006C05E500D330E6016507840072
:1005F8009830663D8500000881002300D40A220057
:100608006B080319013423005408A03E8600023009
:1006180087000A308100D40A5408A03E86000D30B5
:100628008100D40A22006E082300B80022006D0859
:100638002300B90022006C082300BA0054200034BB
:100648002200E001E101E201E301952B5108203E7F
:1006580086000330870001082200E400303064027D
:10066800031C432B3A3064020318432B0430E03553
:10067800E10DE20DE30D890B3B2BD030532B61309C
:100688006402031C932B673064020318932B043015
:10069800E035E10DE20DE30D890B4C2BA93021006B
:1006A800E400FF30E500E600E700220060082100D2
:1006B800E800220061082100E90022006208210008
:1006C800EA00220063082100EB0023005108203EC5
:1006D80086000330870001082100EC00ED01EE01DF
:1006E800EF01E8076D08E93D6E08EA3D6F08EB3D4C
:1006F8006808E4076908E53D6A08E63D6B08E73DD8
:1007080067082200E300210066082200E2002100B9
:1007180065082200E100210064082200E0002300AF
:10072800D10A2300530851020318A32B5108203E75
:1007380086000330870020300106031D2A2B220083
:1007480063082100E300220062082100E200220081
:1007580061082100E100220060082100E000080093
:1007680053085102031808005108203E8600033040
:10077800870020300106031D0800D10AB42B210090
:10078800E200003A0319CF2B013A0319E62B033A8A
:100798000319E62BE62BFC309900903027009B00CC
:1007A8000130973146278031023097314627803112
:1007B800033097314627803104309731462701307E
:1007C8008731EA2F08006F08031D08003D008E01DD
:1007D8009201163091009F3097007B3092002100E3
:1007E80012150B178B173D008E19FC2B8E15F72B46
:1007F80001302000EF00080022000E1121000E1128
:100808000800ED002300D801450846040319122CFE
:100818004508860046088700811B4F2C450886003E
:1008280046088700413121006B0801020318252C76
:100838002300450886004608870041310108210049
:10084800EB002300D80121006B082300580203188D
:100858003E2C580821006D07EC0086000330870005
:1008680023005808203E84000130850000088100DC
:10087800D80A272C21002030E001E1000130E200F5
:100888004030E3000230E42461082300C600210060
:1008980060082300C5005808080021001211230031
:1008A800430844040319612C430886004408870060
:1008B800811F612C21001215080003305706031907
:1008C800D7015708031D6B2C2100121508000230B0
:1008D8005706031D822C21000230E001E00AE101E5
:1008E800E201E301E424843161082300C40021000B
:1008F80060082300C3000330D700E12C570BE12C1C
:1009080041305602031C8A2C40308B2C560821009B
:10091800EC002300D602A030C70021006C08EB00D1
:10092800230055080319A92CBE2C2300470886006C
:100938008701490884004A08850000088100C70A21
:10094800C90A0319CA0A2100EB0321006B0803191D
:10095800C22C992C23004708860087014908840087
:100968004A08850000088100C70AC90A0319CA0A8B
:100978002100EB0321006B08031DAE2C2300560851
:10098800031DD02C403021006C06031DCD2C0230F5
:10099800CE2C03302300D7002100A030E001E00A6C
:1009A800E100E2016C08E3000230E424610823005E
:1009B800C400210060082300C300210012150800AC
:1009C800E80060080319F12C6835A73E860001305D
:1009D8008700403FE900413FF92C6835AD3E86006D
:1009E80001308700403FE900413FEA006904031DE8
:1009F800002DE001E10108006108E4007F30620594
:100A0800E500690886006A08870042316408C03F2B
:100A18006508C13F6908013EE40000306A3DE50011
:100A280064088600650887006308810069088600F5
:100A38006A08870040308105690886006A088700CF
:100A48008115690886006A088700811760080319FC
:100A5800432D6835A73E860001308700403FE400FB
:100A6800413FE50004306406E6006508E7006835A4
:100A7800A73E86006608C03F6708C13F582D683505
:100A8800AD3E860001308700403FE400413FE5006D
:100A980004306406E6006508E7006835AD3E860068
:100AA8006608C03F6708C13F6A08E1006908E000BE
:100AB800080024004B30AF01AE01AD000830AC0196
:100AC800B001B101B20023001A30D801F40001309E
:100AD800852585311E30F40002308525853120308A
:100AE800F001F1000130F2004030F3000230D2256D
:100AF80071082300C6007008C500C301C401D701EE
:100B08000800F900741D8B2DF001A2258531F41C15
:100B1800912DF001F00A7908A2257908983EF50090
:100B28000E30F601F63D7508F7007608F8007708EC
:100B3800860078088700740881000800F2002030D9
:100B4800F3007008F100F135720809070907710709
:100B580009070907F30773088600870181137008DE
:100B6800031DC02D7235AD3E860001308700730825
:100B7800C03F0030C13FC92D7235A73E8600013005
:100B880087007308C03F0030C13F730886008701A3
:100B980001137308043E860001170800F800700866
:100BA8000319DF2D7835A73E860001308700403FC6
:100BB800F900413FE72D7835AD3E860001308700CA
:100BC800403FF900413FFA007904031DEE2DF00182
:100BD800F10108007108F4007F307205F50079080A
:100BE80086007A08870042317408C03F7508C13F03
:100BF8007908013EF40000307A3DF500740886005B
:100C08007508870073088100790886007A088700CC
:100C180040308105790886007A08870081157908AF
:100C280086007A088700811770080319312E7835F5
:100C3800A73E860001308700403FF400413FF500A1
:100C480004307406F6007508F7007835A73E86006C
:100C58007608C03F7708C13F462E7835AD3E8600FE
:100C680001308700403FF400413FF500043074062E
:100C7800F6007508F7007835AD3E86007608C03F67
:100C88007708C13F7A08F1007908F0000800670882
:100C980086008701413FF500F200F3017308240242
:100CA800031D582E7208230203185C2E2308F50032
:100CB8007508A302031CA403F40175087402031841
:100CC800722E20088600023087007408583E84007F
:100CD800850100088100A00AF40A612E2308240473
:100CE8000319AA2E4B08013EF20000304C3DF300D8
:100CF8007208860073088700083081005830F200B7
:100D0800F3014B0886004C08870042317208C03F47
:100D18007308C13F6708860087014B08011B9F2E97
:100D280086004C088700483081004B0886004C0834
:100D380087008117080086004C088700083081006A
:100D48004B0886004C088700811708004B08013EB5
:100D5800F20000304C3DF3007208860073088700EB
:100D6800083081005030F200F3014B0886004C082F
:100D7800870042317208C03F7308C13F4B088600A4
:100D88004C088700043081004B0886004C08870017
:100D9800811725082608A2135E08031D08008D3157
:100DA800012D883152288831532888313F288831CD
:100DB800532888313F28883140288831462888318F
:100DC800692888314828883147288831542888314B
:100DD8005E2888313F289731672F9731492F9731FF
:100DE8004E2F9731532F9731582F640080010131CE
:060DF800890BFA2E003405
:100E00008C31742C8C318B2C8C31782C8C318B2C3C
:100E10008C318B2C8C318B2C8C318B2C8C318B2C02
:100E20008C318B2C8C318B2C8C318B2C8C318B2CF2
:100E30008C318B2C8C318B2C8C318B2C8C318B2CE2
:100E40008C318B2C8C318B2C8C318B2C8C318B2CD2
:100E50008C318B2C8C318B2C8C318B2C8C318B2CC2
:100E60008C318B2C8C318B2C8C318B2C8C318B2CB2
:100E70008C318B2C8C318B2C8C318B2C8C318B2CA2
:100E80008C318B2C8C318B2C8C318B2C8C318B2C92
:100E90008C318B2C8C318B2C8C318B2C8C318B2C82
:100EA0008C318B2C8C318B2C8C318B2C8C318B2C72
:100EB0008C318B2C8C318B2C8C318B2C8C318B2C62
:100EC0008C318B2C8C318B2C8C318B2C8C318B2C52
:100ED0008C318B2C8C318B2C8C318B2C8C318B2C42
:100EE0008C318B2C8C318B2C8C318B2C8C318B2C32
:100EF0008C318B2C8C318B2C8C318B2C8C318B2C22
:100F00008C318B2C8C318B2C8C318B2C8C318B2C11
:100F10008C318B2C8C318B2C8C318B2C8C318B2C01
:100F20008C318B2C8C318B2C8C318B2C8C318B2CF1
:100F30008C318B2C8C318B2C8C318B2C8C318B2CE1
:100F40008C318B2C8C318B2C8C318B2C8C318B2CD1
:100F50008C318B2C8C318B2C8C318B2C8C318B2CC1
:100F60008C318B2C8C318B2C8C318B2C8C318B2CB1
:100F70008C318B2C8C318B2C8C318B2C8C318B2CA1
:100F80008C318B2C8C318B2C8C318B2C8C318B2C91
:100F90008C318B2C8C318B2C8C318B2C8C318B2C81
:100FA0008C318B2C8C318B2C8C318B2C8C318B2C71
:100FB0008C318B2C8C318B2C8C318B2C8C318B2C61
:100FC0008C318B2C8C318B2C8C31652C8C316F2C93
:100FD0008C316A2CE000F52F8D1623008D12240031
:100FE0008D162300CF01D00108006008003A0319D4
:0C0FF000FD2F013A0319EC2FFD2F080023
:101002002300E601DE01DB01DA01E001E501270848
:10101200860028088700043081132706A70086006F
:1010220028088700043081132706A7004B08860092
:101032004C0887008113B501B601B701A201A301D3
:10104200A4012F20883103302000E000E101E201F9
:10105200E301E401E5015D248831AA292000500E54
:10106200890C0339031D0800510884000D30040265
:101072000318080086310435D53E8200080023009B
:10108200B51708302000EF00080071282E29EB3038
:101092002300B3000130B40035140130B600B51797
:1010A2000800E128BA2A5408E83E2300B3000130C0
:1010B200B4003514B600B51708002300B517200098
:1010C2005408E83E8600013087005208810008007B
:1010D2000230E000E101E201E301E401E5015D2CFF
:1010E200803020005006031D0800C0302300B500E8
:1010F200D428C1302300B3009830B4001230B600B7
:10110200B70108005208031DAF285208F000F4305E
:10111200F101F035F10D700784009830713D8500C2
:10112200003F2300B300013FB4003408F10033084C
:10113200F000023E840071080318710A850000085D
:10114200B6003408F1003308F000033E8400710851
:101152000318710A85000008B70008002300B501D2
:101162000800033052020318CE285208F000E4307F
:10117200F101F035F10D700784009830713D850062
:10118200003F2300B300013FB40033088400340859
:1011920085000008B600B70108002300B501080069
:1011A2002300B501080020005308013A03197A28E8
:1011B200033A03198328013A0319B228D1280800F7
:1011C2002000D801D90119292300B517630B24295E
:1011D2002000D81424292300B51724292300B51789
:1011E2002000D41BFF2854080F390907AD3E8600A2
:1011F20001308700403FF000413F092954080F3970
:101202000907A73E860001308700403FF000413FBA
:10121200F1007008860071088700811F2429700878
:10122200860071088700011D24290130D800242975
:1012320050081F390319E528013A0319EC28033A2B
:101242000319EF2824292300B51F08005830B300E2
:10125200B40135140230B60008002300B5170E3071
:101262002000E7009930E600E8016608860067087A
:1012720087008101E60A0319E70A0230E80A6802D8
:10128200031C36292030F0003030F101F201F30165
:10129200F400F501932188313D000E172000E90189
:1012A2006908BE3E86000130870081016908BB3EA5
:1012B200860003308101E90A6902031C5129E830E2
:1012C200F0000130F1000230F201F301F400F50107
:1012D200932188313D000E1328302300A7002030CF
:1012E200A801E700CB00FF39031D0030CC0020002D
:1012F20052082300EB006B08031D832910302000E5
:10130200EF0008002000EB30E001E00AE101E2001A
:101312000130E300E401E40AE5015D24203020000D
:10132200EF0008007108F7007008F6000130F402BF
:101332000030F53B740FA029750A031908007608DE
:1013420086007708870072088100F60A0319F70AF7
:1013520097293D000E122300B51BE929A21FBA29C5
:101362000230E5005A08031DB7292122DC01DD0104
:1013720008004B08013EF50000304C3DF6007508B0
:10138200860076088700083081005030F500F601AB
:101392004B0886004C08870042317508C03F76082A
:1013A200C13F4B0886004C0887000C3081004B0877
:1013B20086004C08870081172708860028088700C6
:1013C200043081002708860028088700811708005A
:1013D2002000D01FFA2901302300E5005B08031D1D
:1013E200F42921228831DC01DD015E08031D080099
:1013F200012D02302300E5004B08013EF5000030CC
:101402004C3DF6007508860076088700083081009A
:101412005030F500F6014B0886004C088700423137
:101422007508C03F7608C13F4B0886004C0887000C
:10143200043081004B0886004C0887008117F4298C
:10144200DB01DA0102306506031D4B2A4B08013E1F
:10145200F30000304C3DF4007308860074088700E6
:10146200083081005830F300F4014B0886004C0824
:10147200870042317308C03F7408C13F4B088600A1
:101482004C088700483081004B0886004C088700D2
:1014920081170800370820005702031D542A230031
:1014A20036082000560203185D2A57082300B700A9
:1014B200200056082300B600CB265830F300F40172
:1014C200270886002808870042317308C03F740845
:1014D200C13F270886002808870048308100270876
:1014E20086002808870081170800F2008D2AFC3048
:1014F20021009900903027009B0001309922883109
:10150200023099228831033099228831043099229D
:1015120088310130EB2708007208003A0319782A53
:10152200013A0319982A033A0319982A982A0800BB
:10153200F100AF2A0130CF2421008E1108000230C1
:10154200CF2421000E1208000330CF2421008E1276
:1015520008000430CF2421000E1308007108840013
:10156200053004020318080091310435503E820010
:1015720008002000520BCE2A50081F39031DCE2A24
:101582002300B517033020005106031DCC2A013079
:101592002300E300CE2A2300E30120005208031DAA
:1015A200080050081F39023A031D080054080F3979
:1015B2000319080054080F39FB0003307B0203189B
:1015C200080020306F06031D08002300B517200015
:1015D200D41BFA2A54080F390907AD3E86000130A0
:1015E2008700403FE900413FEA0054080F39BB3E03
:1015F200082B54080F390907A73E860001308700DF
:10160200403FE900413FEA0054080F39BE3E8600E0
:101612000108E8006818182BFB30FB00FF30FC00C3
:1016220069087B05E9006A087C05EA001B2B043087
:101632006904E900D41B292B54080F390907AD3E70
:101642008600013087006908C03F6A08C13F342B19
:1016520054080F390907A73E860001308700690840
:10166200C03F6A08C13F03305106031D562B69086B
:1016720086006A088700811F4B2BD41B442B540819
:101682000F39BB3E472B54080F39BE3E860001304E
:1016920087008114690886006A08870001156908B5
:1016A20086006A0887008117080004306906E9008D
:1016B20086006A0887006908811F752B86006A0800
:1016C20087008113690886006A08870005300117C0
:1016D200E000E1016A08E3006908E2000230E40088
:1016E200E5015D248831792B86006A08870001179D
:1016F200043020006906E900E818852B6908860095
:101702006A088700811FA52BD41B8B2B54080F3925
:10171200BB3E8E2B54080F39BE3E86000130870037
:101722008110690886006A0887003B308105053010
:10173200E000E1016A08E3006908E2000230E40027
:10174200E5015D248831AB2B690886006A088700B1
:101752003B308105200054080F39983EFB000E30C3
:10176200FC01FC3D7B08E6007C08E7006608860079
:10177200670887000110080020006F03031DCA2BB1
:101782003D008E1ACA2B900112141216023020004C
:10179200EF003D001019121DD12B101120268831A7
:1017A2003D008E1CD72B2000121108001018121CAD
:1017B200E32B192788312100121504302000EF0095
:1017C2003D001010101A121EE82B102688313D0021
:1017D200101F042C121FF82B73302000E000E101CF
:1017E200E201E301E401E40AE5015D2488313D0000
:1017F2001013E02588315F08031DDF035F08031D16
:10180200042C012588313D00901A921E0A2CF225E3
:1018120088319018921C1B2CFF302000E0007F3092
:10182200E100E201E301E401E40AE5015D2488311B
:101832003D009301043020006F020318222C121184
:1018420008003D00921D5A2C2000EE01572C0F0873
:101852002300EA006A0CFD00FD0C7D0C0F39E1004B
:101862003D00901123006A19392C6108BB3E3B2CC4
:101872006108BE3E86000130870081066108031DB3
:10188200452CA0258831512C72302000E000EA302E
:10189200E101E2000130E300E401E5015D24883169
:1018A20020000430EE0A6E0203185A2C3D009019F3
:1018B200282C2000121108006108003A0319792C23
:1018C2007F3A0319862C8B2C8C2488315C25883135
:1018D200672E8C2488310130762208008C248831CE
:1018E20002307622080085315D258831942FA02FA1
:1018F2006008FF3E031C08008400753004020318D0
:10190200080087310435003E82006008FF3A03195F
:101912008B2C8B2C08003D008E1CC42C0430CF2451
:101922000800230041034204031D9B2C0430E824D9
:101932008831CA2C4B3041064204031DA42C0430CA
:10194200CF248831CA2C0030420297300319410259
:10195200031CCA2CC101C201CA2C23004103420448
:10196200031DB72C0430E8248831CA2C32304106DA
:101972004204031DC02C0430CF248831CA2C03300A
:101982004202B730A72C20006F08203A0319922C8C
:10199200AE2C2300C10A0319C20A0800F000DD2C94
:1019A20022008E15080022000E16080022008E1654
:1019B200080022000E170800700884000530040297
:1019C20003180800913104355A3E82000800F000E5
:1019D200F62C22008E11080022000E1208002200AE
:1019E2008E12080022000E130800700884000530D1
:1019F20004020318080091310435643E8200080095
:101A020023005D08031D08000130DD005C08031D92
:101A120008000130DC0002306506031D222D270874
:101A2200860028088700413181012708860028089E
:101A32008700483081002708860028088700811720
:101A42000800650B0800E001670A8600083087017C
:101A520081005030F000F1016708023E86007008F4
:101A6200C03F7108C13F67088600043081006708E3
:101A7200860001308117E0004B08013EF000003083
:101A82004C3DF10070088600710887000830810023
:101A92005030F000F1014B0886004C0887004231BB
:101AA2007008C03F7108C13F4B0886004C08870090
:101AB20080308100080023004E08803AF000803018
:101AC2007002031D662D09304D0203186D2D23008F
:101AD200CD0A0319CE0A08002300CD01CE01902DB4
:101AE200031020000D1F03140030093D2300CF0016
:101AF200D001080020000D1F822D2300CF01D0014C
:101B0200080002302300CF00D001080020000D1F82
:101B1200822D03302300CF00D00108007B2D500816
:101B2200003A0319952D9F2D4F08840004300402BA
:101B320003180800913104356E3E820008002D30F2
:101B4200DF006A08FD39031DD82D6A363F390907BF
:101B52000907203EE700CB00FF39031D0030CC000F
:101B620004304B06CB00670886008701010C890C04
:101B72000F390D3A031DD72D503086002300670818
:101B8200023E84008501003F2000EB00013FEC0093
:101B92006B0884006C0885000830ED006D0803199D
:101BA200D62D12001E00ED0BD22D0128372EFD304E
:101BB2006A052000EB00043A031D08006B2E013079
:101BC2002400A0070030A13DA23DA33D23006208EE
:101BD200031D0800D90A5908031D0800FF30D90067
:101BE2000800181C0E2E230067088600803087012B
:101BF2000106031D0C2E2708860028088700843062
:101C02000106031D0C2E670886000C308701810037
:101C12006708860081173D001810901208001215FF
:101C220010128E1401302300E200D9017530200019
:101C3200E000E101E201E301E401E5015D2C2300A2
:101C4200E20174302000E0000030E101E201E30132
:101C5200E401E5015D2488313D008E101211101D52
:101C6200342E1011302E2300D901080002306506EF
:101C7200031D3D2E86314B2EE5016008031D652EA6
:101C82004B08013EF60000304C3DF7007608860016
:101C920077088700083081005030F600F7014B08C2
:101CA20086004C08870042317608C03F7708C13F62
:101CB2004B0886004C0887000C3081004B088600D8
:101CC2004C08870081170800E00108006C08031D1A
:101CD200EC0308002300270886002808870000304C
:101CE200011B0130F50004302706A7000830200050
:101CF2006F06031D882E52087F393D009600160894
:101D02000319852E1030862E04302000EF002300A8
:101D1200650BC42E5830F300F4012708860028080A
:101D2200870042317308C03F7408C13FCB26883117
:101D320002306606031DA92E2708860028088700A0
:101D420004308100270886002808870081170800D0
:101D52007508031DB82E270886002808870048301A
:101D620081002708860028088700811708002708B5
:101D72008600280887000830810027088600280886
:101D8200870081170800A21FC92E25082608A21362
:101D9200E50108000830F200003023003702083065
:101DA200031936020318E02E3608F2006608031DF6
:101DB200DC2E0130DF2E660BE02E0230E6007208C8
:101DC200B602031CB7032708013EF0000030283D8D
:101DD200F10070088600710887007208810058308F
:101DE200E400351C032F152F640886008701330891
:101DF20084003408850000088100B30A0319B40A7C
:101E0200E40AF203720803190800F52E640886003A
:101E12008701330884003408850000088100B30A72
:101E22000319B40AE40AF203720803190800072F1F
:101E3200210012113D009301900198010E30F10032
:101E42009930F000F2017008860071088700810164
:101E5200F00A0319F10A0230F20A7202031C242F5B
:101E6200163091009F3097007B309200F301730887
:101E720009070907203E860000308701C03FC13FA5
:101E8200C23FC33F0C30F30A7302031C382F0E17F4
:101E920096010E120E1390112300B501A201A301A7
:101EA200A4013D0090194C2F01302300DD00DC001D
:101EB200DB01DA01E201F3017335A73E860001304E
:101EC20087000030C03FC13F7335AD3E8600003011
:101ED200C03FC13F7308BE3E860081017308BB3E0E
:101EE200860003308101F30A7302031C5D2F283040
:101EF2002300A7001630A8013D0098002000A3018E
:101F02005030A2000830A1000430A000A017230026
:101F1200EB012400A001A101A201A3012300D90128
:101F22002000EF01080024000830B001B200253083
:101F3200B101AF01AE01AD008030AC000800500825
:101F42001F39013A031D0800500E890C0339013A6A
:101F5200031D080054080319E02F5403031D080051
:101F6200E02F24302300B3000230B4000830B60062
:101F7200B7013514B517080024302300B30002302E
:101F8200B400B517080057082300A4002000560823
:101F92002300A3002C30A000A501A601A21708006F
:101FA2002C302300B3000230B4000730B600B70172
:101FB200C130B500080052082300B51708005108C7
:101FC2008400233004020318080091310435003ED6
:101FD20082000800F000F72F21008D1623008D12D9
:101FE20024008D162300CF01D00108007008003AAA
:101FF2000319FF2F013A0319ED2FFF2F08000034B8
:10200200003400340034003400340034003400342E
:10201200003400340034003400340034003400341E
:10202200003400340034003400340034003400340E
:1020320000340034003401340134013401340134F9
:1020420001340134013401340134013401340134E6
:1020520002340234023402340234023402340234CE
:1020620003340334033403340334033403340434B5
:10207200043404340434043405340534053405349A
:10208200063406340634063407340734073407347A
:102092000834083408340934093409340A340A3457
:1020A2000A340B340B340B340C340C340D340D3431
:1020B2000D340E340E340F340F3410341034113406
:1020C20011341234123413341334143414341534D6
:1020D20015341634163417341834183419341934A4
:1020E2001A341B341B341C341D341D341E341F346B
:1020F200203420342134223423342334243425342C
:10210200263427342734283429342A342B342C34E7
:102112002D342E342F34303431343234323433349B
:10212200343436343734383439343A343B343C344A
:102132003D343E343F3440344234433444344534F5
:102142004634483449344A344B344D344E344F3497
:1021520051345234533455345634573459345A3432
:102162005C345D345F3460346234633465346634C5
:10217200683469346B346D346E3470347234733451
:102182007534773478347A347C347E347F348134D5
:1021920083348534873489348A348C348E34903451
:1021A20092349434963498349A349C349E34A034C5
:1021B200A234A434A734A934AB34AD34AF34B1342F
:1021C200B434B634B834BA34BD34BF34C134C43490
:1021D200C634C834CB34CD34D034D234D534D734E9
:1021E200DA34DC34DF34E134E434E734E934EC3437
:1021F200EF34F134F434F734F934FC34FF348F31F2
:10220200B22F8F31BD2F8F31EA2F8F31EA2F8F31CD
:10221200EA2F8F31EA2F8F31EA2F8F31EA2F8F3158
:10222200EA2F8F31EA2F8F31EA2F8F31EA2F8F3148
:10223200EA2F8F31EA2F8F31EA2F8F31EA2F8F3138
:10224200EA2F8F31EA2F8F31EA2F8F31EA2F8F3128
:10225200EA2F8F31EA2F8F31EA2F8F31EA2F8F3118
:10226200EA2F8F31EA2F8F31EA2F8F31EA2F8F3108
:10227200EA2F8F31EA2F8F31EA2F8F31EA2F8F31F8
:10228200C42F8F31D12F8F31DC2F9731802F97318F
:102292006A2F97316D2F9731702F9731732F8A31B3
:1022A200B92A8A319B2A8A31A02A8A31A52A8A31FF
:1022B200AA2A8C31E72C8C31D12C8C31D42C8C3144
:1022C200D72C8C31DA2C8D31002D8C31EA2C8C31CB
:1022D200ED2C8C31F02C8C31F32C8D31712D8D3114
:0A22E2007B2D8D31872D8D318F2D5E
:102E5E00E100121123005708031D432F21006108C2
:102E6E002300C9000230CA00210060082300D600EA
:102E7E00D501D50AD701D70A210012150800210065
:102E8E00E1005D2F0130682721008E11080002300D
:102E9E00682721000E1208000330682721008E12C9
:102EAE0008000430682721000E1308006108840012
:102EBE00053004020318080086310435EF3E820007
:102ECE000800E000762F22008E15080022000E1654
:102EDE00080022008E16080022000E170800600857
:102EEE008400053004020318080091310435463E73
:102EFE008200080012113D009301900198010E30DE
:102F0E002100E1009930E000E201600886006108CE
:102F1E0087008101E00A0319E10A0230E20A620227
:102F2E00031C8C2F16303D0091009F3097007B3094
:102F3E0092002100E301630809070907203E86007D
:102F4E0000308701C03FC13FC23FC33F0C30E30A90
:102F5E006302031CA22F3D000E1796010E120E13D4
:102F6E0090112300B501A201A301A4013D00901907
:102F7E00B72F01302300DD00DC00DB01DA01E201B6
:102F8E002100E3016335A73E860001308700003043
:102F9E00C03FC13F6335AD3E86000030C03FC13FEC
:102FAE006308BE3E860081016308BB3E8600033087
:102FBE008101E30A6302031CC92F28302300A700F6
:102FCE001630A8013D0098002000A3015030A20049
:102FDE000830A1000430A000A0172300EB0124004C
:102FEE00A001A101A201A3012300D9012000EF013C
:102FFE0008000934023443340034023401340034FE
:10300E00C034323409340434003400340134023410
:10301E0002340134003405342434003410340134C5
:10302E000434243402340234053424340634003497
:10303E0001340534243401340034013407340534AA
:10304E008134033408340034023409340434013436
:10305E00003402340A3400340034003407340534AA
:10306E0002340234403400340034073405348234E0
:10307E0002344034003400343434033443340034E6
:10308E004434003443340034203400345234003499
:10309E00533400342D34003432340034333400349D
:1030AE003234003420340034453400346D3400346E
:1030BE00753400346C3400346134003474340034AC
:1030CE00693400346F3400346E34003420340034EC
:1030DE0044340034653400346D3400346F340034BD
:1030EE00343403344D3400346934003463340034E2
:1030FE00723400346F340034633400346834003476
:10310E0069340034703400342034003454340034C4
:10311E006534003463340034683400346E34003463
:10312E006F3400346C3400346F3400346734003440
:10313E007934003420340034493400346E34003491
:10314E00633400342E3400340A340D340A340D3412
:10315E00483465346C346C346F342C34203477340A
:10316E006F3472346C34643421340A340D340A34BE
:10317E000D3400341234013400340234023400347D
:10318E0000340834D83404340A34003400340134A2
:10319E0001340234003401343034313432343334B7
:1031AE003434353436343734383439346134623467
:1031BE0063346434653466340034F03498347734D0
:1031CE0098344334983443344D3444343E342034AC
:0E31DE000034043403340934043400349834CB
:020000040001F9
:04000E00A4CFCFDFCD
:00000001FF
